{
  "_format": "hh-sol-artifact-1",
  "contractName": "Bank",
  "sourceName": "contracts/Bank.sol",
  "abi": [
    {
      "inputs": [],
      "stateMutability": "nonpayable",
      "type": "constructor"
    },
    {
      "inputs": [],
      "name": "accountCount",
      "outputs": [
        {
          "internalType": "address",
          "name": "",
          "type": "address"
        },
        {
          "internalType": "uint256",
          "name": "",
          "type": "uint256"
        }
      ],
      "stateMutability": "view",
      "type": "function"
    },
    {
      "inputs": [],
      "name": "addressCount",
      "outputs": [
        {
          "internalType": "uint256",
          "name": "",
          "type": "uint256"
        }
      ],
      "stateMutability": "view",
      "type": "function"
    },
    {
      "inputs": [
        {
          "internalType": "uint256",
          "name": "",
          "type": "uint256"
        }
      ],
      "name": "addressLedger",
      "outputs": [
        {
          "internalType": "address",
          "name": "",
          "type": "address"
        }
      ],
      "stateMutability": "view",
      "type": "function"
    },
    {
      "inputs": [],
      "name": "admin",
      "outputs": [
        {
          "internalType": "address",
          "name": "",
          "type": "address"
        }
      ],
      "stateMutability": "view",
      "type": "function"
    },
    {
      "inputs": [
        {
          "internalType": "address",
          "name": "",
          "type": "address"
        }
      ],
      "name": "balanceLedger",
      "outputs": [
        {
          "internalType": "uint256",
          "name": "",
          "type": "uint256"
        }
      ],
      "stateMutability": "view",
      "type": "function"
    },
    {
      "inputs": [],
      "name": "deleteAccount",
      "outputs": [],
      "stateMutability": "nonpayable",
      "type": "function"
    },
    {
      "inputs": [],
      "name": "deposit",
      "outputs": [],
      "stateMutability": "payable",
      "type": "function"
    },
    {
      "inputs": [],
      "name": "getBalance",
      "outputs": [
        {
          "internalType": "uint256",
          "name": "",
          "type": "uint256"
        }
      ],
      "stateMutability": "view",
      "type": "function"
    },
    {
      "inputs": [
        {
          "internalType": "address",
          "name": "_recepient",
          "type": "address"
        },
        {
          "internalType": "uint256",
          "name": "amt",
          "type": "uint256"
        }
      ],
      "name": "transferTo",
      "outputs": [],
      "stateMutability": "nonpayable",
      "type": "function"
    },
    {
      "inputs": [
        {
          "internalType": "uint256",
          "name": "amt",
          "type": "uint256"
        }
      ],
      "name": "withdraw",
      "outputs": [],
      "stateMutability": "nonpayable",
      "type": "function"
    }
  ],
  "bytecode": "0x608060405234801561001057600080fd5b5033600160006101000a81548173ffffffffffffffffffffffffffffffffffffffff021916908373ffffffffffffffffffffffffffffffffffffffff160217905550610c59806100616000396000f3fe6080604052600436106100915760003560e01c80636a75659c116100595780636a75659c146101675780639d80c818146101a4578063d0e30db0146101cf578063e4af29fc146101d9578063f851a4401461020557610091565b806312065fe0146100965780632ccb1b30146100c15780632e1a7d4d146100ea5780633be32f7d1461011357806365c8acb01461012a575b600080fd5b3480156100a257600080fd5b506100ab610230565b6040516100b891906108c4565b60405180910390f35b3480156100cd57600080fd5b506100e860048036038101906100e3919061096e565b610238565b005b3480156100f657600080fd5b50610111600480360381019061010c91906109ae565b61036c565b005b34801561011f57600080fd5b50610128610490565b005b34801561013657600080fd5b50610151600480360381019061014c91906109db565b6105a4565b60405161015e91906108c4565b60405180910390f35b34801561017357600080fd5b5061018e600480360381019061018991906109ae565b6105bc565b60405161019b9190610a17565b60405180910390f35b3480156101b057600080fd5b506101b96105ef565b6040516101c691906108c4565b60405180910390f35b6101d76105f5565b005b3480156101e557600080fd5b506101ee6106fc565b6040516101fc929190610a32565b60405180910390f35b34801561021157600080fd5b5061021a610885565b6040516102279190610a17565b60405180910390f35b600047905090565b8080600360003373ffffffffffffffffffffffffffffffffffffffff1673ffffffffffffffffffffffffffffffffffffffff1681526020019081526020016000205410156102bb576040517f08c379a00000000000000000000000000000000000000000000000000000000081526004016102b290610ab8565b60405180910390fd5b81600360003373ffffffffffffffffffffffffffffffffffffffff1673ffffffffffffffffffffffffffffffffffffffff168152602001908152602001600020600082825461030a9190610b07565b9250508190555081600360008573ffffffffffffffffffffffffffffffffffffffff1673ffffffffffffffffffffffffffffffffffffffff16815260200190815260200160002060008282546103609190610b3b565b92505081905550505050565b8080600360003373ffffffffffffffffffffffffffffffffffffffff1673ffffffffffffffffffffffffffffffffffffffff1681526020019081526020016000205410156103ef576040517f08c379a00000000000000000000000000000000000000000000000000000000081526004016103e690610ab8565b60405180910390fd5b81600360003373ffffffffffffffffffffffffffffffffffffffff1673ffffffffffffffffffffffffffffffffffffffff168152602001908152602001600020600082825461043e9190610b07565b925050819055503373ffffffffffffffffffffffffffffffffffffffff166108fc839081150290604051600060405180830381858888f1935050505015801561048b573d6000803e3d6000fd5b505050565b6000600360003373ffffffffffffffffffffffffffffffffffffffff1673ffffffffffffffffffffffffffffffffffffffff1681526020019081526020016000205411156105a2573373ffffffffffffffffffffffffffffffffffffffff166108fc600360003373ffffffffffffffffffffffffffffffffffffffff1673ffffffffffffffffffffffffffffffffffffffff168152602001908152602001600020549081150290604051600060405180830381858888f1935050505015801561055d573d6000803e3d6000fd5b50600360003373ffffffffffffffffffffffffffffffffffffffff1673ffffffffffffffffffffffffffffffffffffffff168152602001908152602001600020600090555b565b60036020528060005260406000206000915090505481565b60026020528060005260406000206000915054906101000a900473ffffffffffffffffffffffffffffffffffffffff1681565b60005481565b6000600360003373ffffffffffffffffffffffffffffffffffffffff1673ffffffffffffffffffffffffffffffffffffffff16815260200190815260200160002054036106a457336002600080600081548092919061065390610b6f565b91905055815260200190815260200160002060006101000a81548173ffffffffffffffffffffffffffffffffffffffff021916908373ffffffffffffffffffffffffffffffffffffffff1602179055505b34600360003373ffffffffffffffffffffffffffffffffffffffff1673ffffffffffffffffffffffffffffffffffffffff16815260200190815260200160002060008282546106f39190610b3b565b92505081905550565b600080600160009054906101000a900473ffffffffffffffffffffffffffffffffffffffff1673ffffffffffffffffffffffffffffffffffffffff163373ffffffffffffffffffffffffffffffffffffffff161461078f576040517f08c379a000000000000000000000000000000000000000000000000000000000815260040161078690610c03565b60405180910390fd5b60008060005b6000548110156108785760006002600083815260200190815260200160002060009054906101000a900473ffffffffffffffffffffffffffffffffffffffff169050600360008273ffffffffffffffffffffffffffffffffffffffff1673ffffffffffffffffffffffffffffffffffffffff1681526020019081526020016000205483101561086457600360008273ffffffffffffffffffffffffffffffffffffffff1673ffffffffffffffffffffffffffffffffffffffff1681526020019081526020016000205492508093505b50808061087090610b6f565b915050610795565b5081819350935050509091565b600160009054906101000a900473ffffffffffffffffffffffffffffffffffffffff1681565b6000819050919050565b6108be816108ab565b82525050565b60006020820190506108d960008301846108b5565b92915050565b600080fd5b600073ffffffffffffffffffffffffffffffffffffffff82169050919050565b600061090f826108e4565b9050919050565b61091f81610904565b811461092a57600080fd5b50565b60008135905061093c81610916565b92915050565b61094b816108ab565b811461095657600080fd5b50565b60008135905061096881610942565b92915050565b60008060408385031215610985576109846108df565b5b60006109938582860161092d565b92505060206109a485828601610959565b9150509250929050565b6000602082840312156109c4576109c36108df565b5b60006109d284828501610959565b91505092915050565b6000602082840312156109f1576109f06108df565b5b60006109ff8482850161092d565b91505092915050565b610a1181610904565b82525050565b6000602082019050610a2c6000830184610a08565b92915050565b6000604082019050610a476000830185610a08565b610a5460208301846108b5565b9392505050565b600082825260208201905092915050565b7f496e73756666696369656e742042616c616e6365000000000000000000000000600082015250565b6000610aa2601483610a5b565b9150610aad82610a6c565b602082019050919050565b60006020820190508181036000830152610ad181610a95565b9050919050565b7f4e487b7100000000000000000000000000000000000000000000000000000000600052601160045260246000fd5b6000610b12826108ab565b9150610b1d836108ab565b9250828203905081811115610b3557610b34610ad8565b5b92915050565b6000610b46826108ab565b9150610b51836108ab565b9250828201905080821115610b6957610b68610ad8565b5b92915050565b6000610b7a826108ab565b91507fffffffffffffffffffffffffffffffffffffffffffffffffffffffffffffffff8203610bac57610bab610ad8565b5b600182019050919050565b7f4e6f7420416c6c6f776564000000000000000000000000000000000000000000600082015250565b6000610bed600b83610a5b565b9150610bf882610bb7565b602082019050919050565b60006020820190508181036000830152610c1c81610be0565b905091905056fea26469706673582212205b1be69209ef80ef635ba9d41aa1cb683cf63f65a934e4b3055adbd823d1813764736f6c63430008140033",
  "linkReferences": {},
  "deployedLinkReferences": {}
}